:100000000C94E80D0C94170E0C94170E0C94170E0C
:100010000C94170E0C94170E0C94170E0C94170ECC
:100020000C94170E0C94170E0C94BFBC0C943CBD92
:100030000C94170E0C94170E0C94170E0C94170EAC
:100040000C94170E0C9474770C94170E0C94170ED6
:100050000C94170E0C94170E0C94338B0C9423BC39
:100060000C94170E0C94170E0C94170E0C94170E7C
:100070000C94170E0C94170E0C94170E0C94170E6C
:100080000C94170E0C94170E0C94170E0C94170E5C
:100090000C947CB90C94170E9C8BAA8BC68BD48BBA
:1000A000EE8BFC8B168C248C448C084AD73B3BCEC1
:1000B000016E84BCBFFDC12F3D6C74319ABD568367
:1000C0003DDA3D00C77F11BED9E4BB4C3E916BAA1F
:1000D000AABE000000803F05A84CCDB2D44EB9386E
:1000E00036A9020C50B9918688083CA6AAAA2ABE55
:1000F000000000803F0048617264636F64656420A3
:1001000044656661756C742053657474696E6773B9
:10011000204C6F616465640053746F726564207372
:10012000657474696E67732072657472696576654B
:100130006400205A0020590020204D3231322058CE
:10014000004265642070726F6265206F6666736539
:100150007420286D6D293A00205A00205900202073
:100160004D3231312058004D617820706F736974C1
:10017000696F6E20286D6D293A00205A00205900C1
:1001800020204D3231302058004D696E20706F7341
:100190006974696F6E20286D6D293A002044002033
:1001A00049002020204D3330312050005049442058
:1001B00073657474696E67733A00205A00205900A1
:1001C00020204D323036205800486F6D65206F6614
:1001D0006673657420286D6D293A00204500205A09
:1001E0000020580020420020540020204D3230359D
:1001F000205300416476616E6365642076617269A4
:1002000061626C65733A20533D4D696E2066656589
:10021000647261746520286D6D2F73292C20543D04
:100220004D696E2074726176656C206665656472D6
:1002300061746520286D6D2F73292C20423D6D69F6
:100240006E696D756D207365676D656E7420746978
:100250006D6520286D73292C20583D6D6178696D7E
:10026000756D205859206A65726B20286D6D2F734B
:10027000292C20205A3D6D6178696D756D205A20BA
:100280006A65726B20286D6D2F73292C2020453DE7
:100290006D6178696D756D2045206A65726B2028E7
:1002A0006D6D2F73290020540020204D32303420F2
:1002B0005300416363656C65726174696F6E3A20C7
:1002C000533D616363656C65726174696F6E2C2068
:1002D000543D7265747261637420616363656C651B
:1002E000726174696F6E00204500205A0020590029
:1002F00020204D3230312058004D6178696D756D88
:1003000020416363656C65726174696F6E20286D4E
:100310006D2F7332293A00204500205A00205900E1
:1003200020204D3230332058004D6178696D756D55
:100330002066656564726174657320286D6D2F7326
:10034000293A00204500205A0020590020204D392C
:100350003220580053746570732070657220756E7A
:1003600069743A0053657474696E67732053746FCF
:10037000726564006563686F3A0053544F5050458E
:10038000442E20005072696E7465722073746F7011
:100390007065642064756520746F206572726F7279
:1003A000732E2046697820746865206572726F72BA
:1003B00020616E6420757365204D39393920746F62
:1003C00020726573746172742E202854656D706597
:1003D0007261747572652069732072657365742E1D
:1003E000205365742069742061667465722072659B
:1003F0007374617274696E6729004B494C4C4544B3
:100400002E20005072696E7465722068616C74658C
:10041000642E206B696C6C28292063616C6C6564A8
:1004200021006F6B00526573656E643A20002200F4
:10043000556E6B6E6F776E20636F6D6D616E643A93
:100440002022004368616E67652066696C616D6596
:100450006E7400486F74656E64206F6666736574B1
:10046000733A007A5F6D696E3A2000795F6D696E4C
:100470003A2000785F6D696E3A20005A3A00593A86
:100480000020436F756E7420583A2000453A005A98
:100490003A00593A00583A004649524D57415245A0
:1004A0005F4E414D453A5042204D61726C696E205D
:1004B0005265762046207635204C65676163792049
:1004C0004649524D574152455F55524C3A687474F3
:1004D00070733A2F2F6769746875622E636F6D2F82
:1004E0005072696E7472626F742F4D61726C696EB6
:1004F0002050524F544F434F4C5F56455253494F33
:100500004E3A312E30204D414348494E455F5459B3
:1005100050453A5072696E7472626F742045585437
:1005200052554445525F434F554E543A332055552A
:1005300049443A30303030303030302D3030303087
:100540002D303030302D303030302D3030303030B4
:10055000303030303030300A005072696E74726260
:100560006F74204F66662E0042656420646F6E656E
:100570002E0020423A0020453A00543A0042656479
:100580002048656174696E672E0048656174696E04
:100590006720646F6E652E0020573A0020453A00B0
:1005A000543A0048656174696E672E2E2E00204211
:1005B000403A0020403A00202F003A00205400200A
:1005C0002F0020423A00202F006F6B20543A002564
:1005D00069206D696E2C2025692073656300456E66
:1005E000642066696C65206C697374004265676994
:1005F0006E2066696C65206C697374004E6F206DA7
:100600006F76652E00526573756D696E6720707226
:10061000696E74005761697420666F722075736526
:10062000722E2E2E000A00205A3A200020593A201D
:100630000042656420506F736974696F6E20583A88
:1006400020000A00207A3A200020793A20004265F2
:100650006420783A20000A00207A3A200020793A73
:10066000200042656420783A20000A00207A3A206F
:100670000020793A200042656420783A20005A50E0
:10068000726F6265204F757473696465204265649A
:10069000005A50726F6265204F75747369646520EB
:1006A00042656400486F6D6520582F592062656669
:1006B0006F7265205A00486F6D6520582F5920626F
:1006C00065666F7265205A00536C6565702E2E2E1C
:1006D00000256920686F757273202569206D696E29
:1006E0007574657300446F6E65207072696E74690D
:1006F0006E672066696C650053544F505045442E18
:1007000020005072696E7465722073746F7070652A
:10071000642064756520746F206572726F72732E29
:100720002046697820746865206572726F72206156
:100730006E6420757365204D39393920746F2072CD
:100740006573746172742E202854656D70657261D2
:10075000747572652069732072657365742E2053F9
:1007600065742069742061667465722072657374A3
:10077000617274696E6729006F6B004E6F204C695F
:100780006E65204E756D62657220776974682063AE
:100790006865636B73756D2C204C617374204C69B4
:1007A0006E653A20004E6F20436865636B73756D0C
:1007B0002077697468206C696E65206E756D62655E
:1007C000722C204C617374204C696E653A20006372
:1007D0006865636B73756D206D69736D61746368B3
:1007E0002C204C617374204C696E653A20004C6972
:1007F0006E65204E756D626572206973206E6F7430
:10080000204C617374204C696E65204E756D626575
:10081000722B312C204C617374204C696E653A2028
:10082000004D31313000446F6E6520736176696E22
:10083000672066696C652E006F6B004D32390020B1
:1008400020506C616E6E65724275666665724279A3
:100850007465733A20002046726565204D656D6FA2
:1008600072793A20004D61792032322032303136AF
:1008700000436F6D70696C65643A2000286D616B90
:1008800033722C205072696E7472626F74206669C4
:10089000726D776172652900207C20417574686FE4
:1008A000723A20004D6179203232203230313620C8
:1008B00031363A31353A313200204C61737420556B
:1008C0007064617465643A2000312E302E30004D22
:1008D00061726C696E200020536F66747761726577
:1008E00020526573657400205761746368646F6794
:1008F000205265736574002042726F776E206F75A9
:1009000074205265736574002045787465726E6159
:100910006C20526573657400506F77657255700076
:100920007374617274002200656E717565696E671B
:100930002022002200656E717565696E67202200B5
:10094000FFFFFF0000A0400000A0400000803F65C6
:1009500063686F3A004572726F723A007C3C3E5E8B
:100960002B3D3F2F5B5D3B2C2A225C004D38342011
:10097000582059205A20450043616E6E6F742065DF
:100980006E746572207375626469723A20004D322C
:1009900034004D3233202573006175746F25692E44
:1009A00067006572726F722077726974696E672072
:1009B000746F2066696C65004E6F7420534420701C
:1009C00072696E74696E67002F00534420707269FB
:1009D0006E74696E67206279746520002E0044652C
:1009E0006C6574696F6E206661696C65642C204665
:1009F000696C653A200046696C652064656C6574B5
:100A000065643A002E006F70656E206661696C65E2
:100A1000642C2046696C653A200057726974696ECF
:100A20006720746F2066696C653A20002E006F7035
:100A3000656E206661696C65642C2046696C653A58
:100A400020002E006F70656E206661696C65642CF5
:100A50002046696C653A200046696C652073656CB8
:100A60006563746564002053697A653A20004669BD
:100A70006C65206F70656E65643A20002E006F70A3
:100A8000656E206661696C65642C2046696C653A08
:100A900020004E6F772066726573682066696C650A
:100AA0003A20004E6F7720646F696E672066696C2C
:100AB000653A20002220706F7300222070617265F9
:100AC0006E743A2200535542524F5554494E4520B8
:100AD00043414C4C207461726765743A2200747211
:100AE00079696E6720746F2063616C6C2073756226
:100AF0002D67636F64652066696C65732077697420
:100B00006820746F6F206D616E79206C6576656CFE
:100B1000732E204D4158206C6576656C2069733AC0
:100B20000053442063617264206F6B006F70656EC8
:100B3000526F6F74206661696C656400766F6C75C6
:100B40006D652E696E6974206661696C6564005319
:100B50004420696E6974206661696C006563686F22
:100B60003A004572726F723A0020746F6F206C6F9A
:100B70006E6720657874727573696F6E2070726528
:100B800076656E7465640020636F6C6420657874AC
:100B9000727573696F6E2070726576656E746564C8
:100BA000006563686F3A0028002920453A00280054
:100BB00029205A3A0028002920593A0028002058B4
:100BC0003A00537465707065722063757272656E59
:100BD000742076616C756573205B252872617729B6
:100BE0005D3A00656E6473746F7073206869743A5F
:100BF000205A00205A3A00656E6473746F70732037
:100C00006869743A20590020593A00656E6473741B
:100C10006F7073206869743A20580020583A006554
:100C20006E6473746F7073206869743A200024F4E2
:100C3000D43050C38E20C2A24017828B7011127A1A
:100C4000910D816CD90AA861E108C7586607615106
:100C500043061E4B5D05C145A7041A411104093D19
:100C60009803713931034036DB0265339102D43089
:100C70005402802E1D02632CEE01752AC501B02896
:100C8000A001102781018F2564012B244B01E02254
:100C90003401AC211F018D200D01801FFC00841E3A
:100CA000ED00971DDF00B81CD200E61BC600201B1C
:100CB000BC00641AB200B219A8000A19A0006A1890
:100CC0009900D117910040178B00B516840031169A
:100CD0007E00B31579003A157300C7146F005814DD
:100CE0006A00EE1366008813630025135E00C712C6
:100CF0005B006C12570015125400C11151007011A5
:100D00004F0021114B00D61049008D1047004610AE
:100D1000440002104200C00F4000800F3E00420F0E
:100D20003C00060F3B00CB0E3800930E37005C0EE4
:100D30003500270E3400F30D3200C10D3100900D47
:100D40003000600D2E00320D2D00050D2C00D90C49
:100D50002B00AE0C2900850C29005C0C2700350CFB
:100D600027000E0C2600E80B2400C40B2400A00B67
:100D700023007D0B23005A0B2100390B2100180B97
:100D80002000F80A1F00D90A1E00BB0A1E009D0A97
:100D90001D00800A1D00630A1C00470A1B002C0A64
:100DA0001B00110A1A00F7091A00DD091900C4090D
:100DB0001900AB091900920917007B091800630993
:100DC00017004C09160036091600200916000A09FA
:100DD0001500F5081500E0081400CC081400B80848
:100DE0001400A4081400900813007D0812006B087A
:100DF0001300580812004608120034081100230896
:100E000011001208110001081100F0071000E0079E
:100E10001000D0071000C0071000B0070F00A10796
:100E2000100091070E0083070F0074070F0065077D
:100E30000E0057070E0049070E003B070D002E0756
:100E40000E0020070D0013070D0006070D00F90620
:100E50000C00ED060D00E0060C00D4060C00C806E0
:100E60000C00BC060C00B0060C00A4060B00990692
:100E70000C008D060B0082060B0077060B006C063B
:100E80000B0061060A0057060B004C060A004206DA
:100E90000A0038060A002E060A0024060A001A066E
:100EA0000A001006090007060A00FD050900F405FE
:100EB0000900EB050900E2050900D9050900D00584
:100EC0000900C7050900BE050900B5050800AD0504
:100ED0000800A50509009C050800940508008C057C
:100EE0000800840508007C050800740508006C05EE
:100EF0000700650508005D050700560508004E055A
:100F000007004705070040050800380507003105C0
:100F100007002A050700230507001C050600160523
:100F200007000F0507000805060002050700FB047F
:100F30000600F5040700EE040600E8040600E204DB
:100F40000700DB040600D5040600CF040600C90430
:100F50000600C3040600BD040600B7040600B10481
:100F60000500AC040600A6040600A00405009B04CE
:100F7000060095040500900406008A040500850417
:100F80000500800406007A0405007504050070045D
:100F900005006B04050066040500610405005C049F
:100FA000050057040500520405004D0405004804DF
:100FB0000500430405003E0404003A04050035041E
:100FC0000500300404002C04050027040400230459
:100FD00005001E0404001A04040016040500110490
:100FE00004000D04040009040500040404000004C6
:100FF0000400FC030400F8030400F4030400F003FD
:101000000400EC030400E8030400E4030400E0032C
:101010000400DC030400D8030400D4030400D0035C
:101020000400CC030400C8030300C503030024F438
:1010300004D9201BC40C5C0E9804C4095F02650728
:101040007101F405F900FB04B30048048700C103F3
:1010500069005803550003034500BE023A008402AC
:10106000310053022A002902250004022000E40175
:101070001C00C8011900AF01170098011400840179
:101080001300710110006101100051010E004301B5
:101090000D0036010B002B010B0020010B00150188
:1010A00009000C01090003010800FB000800F3001F
:1010B0000800EB000700E4000600DE000600D80090
:1010C0000600D2000600CC000500C7000500C200E3
:1010D0000500BD000400B9000400B5000400B10023
:1010E0000400AD000400A9000400A5000300A20054
:1010F00003009F0004009B0003009800030095007C
:10110000020093000300900003008D0002008B009A
:1011100003008800020086000200840003008100B2
:1011200002007F0002007D0002007B0002007900C7
:1011300002007700010076000200740002007200D5
:101140000100710002006F0002006D0001006C00E0
:1011500002006A00010069000200670001006600E9
:1011600001006500010064000200620001006100EE
:101170000100600001005F0002005D0001005C00F2
:1011800001005B0001005A000100590001005800F5
:1011900001005700010056000100550001005400F5
:1011A00001005300000053000100520001005100F3
:1011B0000100500001004F0001004E0000004E00F1
:1011C00001004D0001004C0001004B0000004B00ED
:1011D00001004A00010049000100480000004800E9
:1011E00001004700010046000000460001004500E4
:1011F00000004500010044000100430000004300DE
:1012000001004200000042000100410000004100D6
:101210000100400001003F0000003F0001003E00CF
:1012200000003E0001003D0000003D0001003C00C8
:1012300000003C0000003C0001003B0000003B00BF
:1012400001003A0000003A000100390000003900B6
:1012500001003800000038000000380001003700AD
:1012600000003700010036000000360000003600A4
:101270000100350000003500000035000100340099
:10128000000034000000340001003300000033008F
:101290000000330001003200000032000000320084
:1012A0000100310000003100000031000100300079
:1012B000000030000000300001002F0000002F006F
:1012C00000002F0000002F0001002E0000002E0063
:1012D00000002E0001002D0000002D0000002D0058
:1012E00000002D0001002C0000002C0000002C004C
:1012F00000002C0001002B0000002B0000002B0040
:1013000000002B0001002A0000002A0000002A0033
:1013100000002A0001002900000029000000290027
:10132000000029000000290001002800000028001A
:10133000000028000000280000002800010027000D
:101340000000270000002700000027000000270001
:1013500001002600000026000000260000002600F4
:1013600000002600010025000000250000002500E7
:1013700000002500000025000000250001002400D9
:1013800000002400000024000000240000002400CD
:1013900001002300000023000000230000002300C0
:1013A00000002300000023000000230001002200B1
:1013B00000002200000022000000220000002200A5
:1013C0000000220001002100000021000000210097
:1013D0000000210000002100000021000000210089
:1013E000010020000000200000002000000020007C
:1013F000000020000000200000002000000020006D
:1014000001001F0000001F0000001F0000001F005F
:1014100000001F0000001F0000001F0001001E0050
:1014200000001E0000001E0000001E00000065639A
:10143000686F3A004572723A204D415854454D50FC
:10144000204245440054656D706572617475726523
:1014500020686561746564206265642073776974CF
:1014600063686564206F66662E204D415854454D73
:101470005020747269676765726564202121004598
:1014800072723A204D494E54454D50003A204578ED
:10149000747275646572207377697463686564201B
:1014A0006F66662E204D494E54454D50207472692A
:1014B0006767657265642021004572723A204D416C
:1014C0005854454D50003A204578747275646572E1
:1014D000207377697463686564206F66662E204D9B
:1014E000415854454D502074726967676572656450
:1014F000202100202D20496E76616C69642065787A
:10150000747275646572206E756D6265722021005B
:10151000504944204175746F74756E652066696E1C
:101520006973686564212050757420746865204B68
:10153000702C204B6920616E64204B6420636F6EB9
:101540007374616E747320696E746F20436F6E667E
:10155000696775726174696F6E2E68005049442026
:101560004175746F74756E65206661696C65642180
:101570002074696D656F75740020403A006F6B20B0
:10158000543A006F6B20423A005049442041757430
:101590006F74756E65206661696C656421205465A1
:1015A0006D706572617475726520746F6F20686903
:1015B000676800204B643A2000204B693A200020E5
:1015C0004B703A200020436C61736963205049449A
:1015D00020002054753A2000204B753A2000206DE1
:1015E00061783A2000206D696E3A200020643A202C
:1015F0000020626961733A20004572726F723A008E
:101600001000C90210012C014001220170011801D3
:10161000B0010E01F00104015002FA00B002F00026
:101620003003E600D003DC009004D2007005C8004F
:10163000A006BE000008B400B009AA00D00BA000AC
:10164000600E960060118C00001582002019780051
:10165000C01D6E00A0226400B0275A00902C5000DC
:1016600000314600E0343C0010383200903A280047
:10167000603C1E00A03D1400803E0A00203F000098
:1016800070012C0190012701B0012201C0011D0150
:10169000F00118011002130130020E01600209016D
:1016A00090020401C002FF000003FA004003F500AD
:1016B0008003F000D003EB002004E6007004E1009A
:1016C000E004DC004005D700C005D2004006CD0094
:1016D000D006C8008007C3003008BE00F008B9007B
:1016E000C009B400B00AAF00B00BAA00D00CA5002E
:1016F000000EA000500F9B00C010960050129100E9
:1017000000148C00C0158700B0178200B0197D004E
:10171000D01B7800001E730040206E0090226900EC
:10172000F024640040275F0090295A00E02B550008
:10173000102E500020304B0010324600E0334100A4
:1017400090353C001037370070383200A0392D003A
:10175000B03A2800A03B2300603C1E00103D190059
:10176000903D1400103E0F00703E0A00C03E050080
:10177000003F00002D2D3A2D2D002D2D2D0053441E
:10178000000120000120000120004D3630300043D0
:1017900068616E67652066696C616D656E74004690
:1017A0006C6F7700466C6F770046616E20737065D2
:1017B00065640046616E207370656564004265640F
:1017C00000426564004E6F7A7A6C6533004E6F7A22
:1017D0007A6C6533004E6F7A7A6C6532004E6F7AA0
:1017E0007A6C6532004E6F7A7A6C65004E6F7A7A49
:1017F0006C65005370656564005370656564004DE9
:1018000061696E00580059005A0045787472756419
:101810006572004578747275646572004D6F766507
:10182000205A004D6F76652059004D6F766520581F
:10183000004D6F76652041786973004D6F766520A5
:10184000302E316D6D004D6F766520316D6D004D20
:101850006F76652031306D6D005072657061726514
:10186000004D6F7665204178697300436F6F6C643B
:101870006F776E0050726568656174204142530055
:101880005072656865617420504C410047323800E1
:101890004175746F20486F6D65004D3834004469A0
:1018A0007361626C65205374657070657273004D6E
:1018B00061696E005049442D43005049442D430056
:1018C0005049442D44005049442D44005049442D72
:1018D00049005049442D49005049442D5000504979
:1018E000442D5000200220466163740020022046EF
:1018F000616374002002204D6178002002204D6158
:1019000078002002204D696E002002204D696E0093
:101910004F6666004F6E20004F6666004F6E2000D7
:101920004175746F74656D700046616E20737065EB
:1019300065640046616E207370656564004265648D
:1019400000426564004E6F7A7A6C6533004E6F7AA0
:101950007A6C6533004E6F7A7A6C6532004E6F7A1E
:101960007A6C6532004E6F7A7A6C65004E6F7A7AC7
:101970006C6500436F6E74726F6C00526573746FA8
:101980007265204661696C73616665004C6F6164C5
:10199000206D656D6F72790053746F7265206D658F
:1019A0006D6F72790054656D7065726174757265E2
:1019B000004D61696E004D383420582059205A205E
:1019C00045004D3234004D323320257300052E2E54
:1019D000000452656672657368004D61696E004D62
:1019E000323100496E69742E2053442D4361726474
:1019F000004E6F2043617264004D323100436861D4
:101A00006E67652053442D43617264005072696EA5
:101A1000742066726F6D2053440053746F702050B1
:101A200072696E7400526573756D65205072696ECF
:101A300074005061757365205072696E7400436F55
:101A40006E74726F6C0050726570617265005475CF
:101A50006E6500496E666F2073637265656E000186
:101A6000290229042908291029202940298029012F
:101A70002C022C01260226042608261026202640A9
:101A8000268026402C802C012302230423082310C7
:101A9000232023402380230120022004200820103B
:101AA00020202040208020102C202C012F022F04E9
:101AB0002F082F102F202F402F802F000100006CA7
:101AC0001B1200020000291B4300030000251B0419
:101AD000010309040B1B1802030904F31A1603037C
:101AE0000904E51A0C0C03310032003300340035D0
:101AF000000000160355005300420020005300650B
:101B0000007200690061006C000000180354006559
:101B10000065006E00730079006400750069006E56
:101B2000006F0000000403090409024300020100E1
:101B3000C032090400000102020100052400100166
:101B400005240100010424020605240600010705FE
:101B5000820308004009040100020A000000070592
:101B60000302400000070584024000001201000249
:101B700002000020C01683040001010203010001DD
:101B8000C1020180360181364E414E494E495459B9
:101B9000494E46CDCCCC3D0AD7233C17B7D1387738
:101BA000CC2B329595E6241FB14F0A00002041004E
:101BB00000C84200401C4620BCBE4CCA1B0E5AAE98
:101BC000C59D74005A224780FEA299B8E2C15E22E8
:101BD00011241FBECFEFD0E2DEBFCDBF13E0A0E0E7
:101BE000B1E0E4E8FAE901E00BBF02C007900D9212
:101BF000AE3DB107D9F722E1AEEDB3E001C01D92D1
:101C0000A535B207E1F71BE1CEECDBE100E006C051
:101C100022970109FE010BBF0E94F9C6C43CD107FF
:101C200080E00807A9F70E9408C00C9431CD0C94FD
:101C30000000DB010D900020E9F7AD014150510992
:101C4000461B570BDC01ED91FC910280F381E02DE6
:101C50000994CF93DF931F92CDB7DEB76983DC0180
:101C6000ED91FC910280F381E02D41E050E0BE0156
:101C70006F5F7F4F09950F90DF91CF910895EF929D
:101C8000FF920F931F93CF93DF931F92CDB7DEB7D1
:101C90008C017B01460FF70161917F01F801808182
:101CA000918149830E947ACCF801808191810196CB
:101CB0009183808349814E11EECF0F90DF91CF91B8
:101CC0001F910F91FF90EF900895EF92FF920F9365
:101CD0001F93CF93DF931F92CDB7DEB78C017B01AB
:101CE000460FF8018081918149830E9472CCF701EF
:101CF00081937F01F8018081918101969183808396
:101D000049814E11EECF0F90DF91CF911F910F912E
:101D1000FF90EF9008950F931F93CF93DF93CDB76C
:101D2000DEB72C970FB6F894DEBF0FBECDBF80E3B1
:101D300090E3A0E3B0E08D839E83AF83B88704E691
:101D400010E01C870B8744E0BE016B5F7F4FCE0124
:101D50000B9695DF40E160ED7FE0CE010B968FDFC3
:101D600040E160EE7FE0CE010B9689DF40E160EC60
:101D70007FE0CE010B9683DF44E068EB7FE0CE018D
:101D80000B967DDF44E064EB7FE0CE010B9677DFBE
:101D900044E06CEB7FE0CE010B9671DF44E064EA37
:101DA0007FE0CE010B966BDF44E060EF7FE0CE0179
:101DB0000B9665DF44E060EB7FE0CE010B965FDFC2
:101DC00044E06CEA7FE0CE010B9659DF44E068EA1C
:101DD0007FE0CE010B9653DF4CE069EE75E0CE015B
:101DE0000B964DDF42E06CE771E1CE010B9647DFC9
:101DF00042E06AE771E1CE010B9641DF42E068E71D
:101E000071E1CE010B963BDF42E066E771E1CE0166
:101E10000B9635DF42E064E771E1CE010B962FDFD0
:101E200042E062E771E1CE010B9629DF44E064E015
:101E300071E0CE010B9623DF44E068E071E0CE0153
:101E40000B961DDF44E06CE071E0CE010B9617DFCE
:101E500044E06AE971E0CE010B9611DF44E066E9E7
:101E600071E0CE010B960BDF44E062E971E0CE0138
:101E70000B9605DF80E290E09A87898742E0BE01F9
:101E8000675F7F4FCE010B96FADE44E06FED73E0A3
:101E9000CE010B96F4DE44E060E171E0CE010B96DA
:101EA000EEDE44E063EE73E0CE010B96E8DE44E044
:101EB00064E171E0CE010B96E2DE44E067EE73E090
:101EC000CE010B96DCDE44E068E171E0CE010B96BA
:101ED000D6DE86E591E3A1E3B0E089839A83AB8304
:101EE000BC831C870B8744E0BE016F5F7F4FCE0130
:101EF0000B96C5DEE4E7F3E064918F01662341F0C1
:101F000089E492E1A6DE0F5F1F4FF8016491F6CFDE
:101F1000E4E6F3E064918F01662341F089E492E105
:101F200098DE0F5F1F4FF8016491F6CF6AE089E4F5
:101F300092E18FDE2C960FB6F894DEBF0FBECDBFB8
:101F4000DF91CF911F910F9108950F931F93CF931E
:101F5000DF93C4E7D3E0FE0164918E01662341F074
:101F600089E492E176DE0F5F1F4FF8016491F6CFAE
:101F7000E4E5F3E064918F01662341F089E492E1A6
:101F800068DE0F5F1F4FF8016491F6CF6AE089E4C5
:101F900092E15FDEFE01649104E713E0662341F005
:101FA00089E492E156DE0F5F1F4FF8016491F6CF8E
:101FB0004091D00F5091D10F6091D20F7091D30FFB
:101FC0008CE493E00E94701A4091D40F5091D50F89
:101FD0006091D60F7091D70F89E493E00E94701A38
:101FE0004091D80F5091D90F6091DA0F7091DB0FAB
:101FF00086E493E00E94701A4091DC0F5091DD0F4F
:102000006091DE0F7091DF0F83E493E00E94701AFD
:1020100069E673E089E492E10CDE6AE089E492E12A
:1020200018DEFE01649104E713E0662341F089E4C1
:1020300092E10FDE0F5F1F4FF8016491F6CFE9E2E6
:10204000F3E064918F01662341F089E492E101DEBF
:102050000F5F1F4FF8016491F6CF6AE089E492E1C7
:10206000F8DDFE01649104E713E0662341F089E4A2
:1020700092E1EFDD0F5F1F4FF8016491F6CF4091C1
:10208000E00F5091E10F6091E20F7091E30F80E259
:1020900093E00E94701A4091E40F5091E50F609117
:1020A000E60F7091E70F8DE193E00E94701A409166
:1020B000E80F5091E90F6091EA0F7091EB0F8AE100
:1020C00093E00E94701A4091EC0F5091ED0F6091D7
:1020D000EE0F7091EF0F87E193E00E94701A69E6AE
:1020E00073E089E492E1A5DD6AE089E492E1B1DD83
:1020F000FE01649104E713E0662341F089E492E174
:10210000A8DD0F5F1F4FF8016491F6CFE9EFF2E011
:1021100064918F01662341F089E492E19ADD0F5FBB
:102120001F4FF8016491F6CF6AE089E492E191DDF6
:10213000FE01649104E713E0662341F089E492E133
:1021400088DD0F5F1F4FF8016491F6CF4091C00FFB
:102150005091C10F6091C20F7091C30F80EF92E058
:102160000E94B01A4091C40F5091C50F6091C60FE4
:102170007091C70F8DEE92E00E94B01A4091C80F87
:102180005091C90F6091CA0F7091CB0F8AEE92E007
:102190000E94B01A4091CC0F5091CD0F6091CE0F9C
:1021A0007091CF0F87EE92E00E94B01A69E673E05B
:1021B00089E492E13EDD6AE089E492E14ADDFE01D4
:1021C000649104E713E0662341F089E492E141DD84
:1021D0000F5F1F4FF8016491F6CFE2EBF2E06491DC
:1021E0008F01662341F089E492E133DD0F5F1F4FD9
:1021F000F8016491F6CF6AE089E492E12ADDFE01FC
:10220000649104E713E0662341F089E492E121DD63
:102210000F5F1F4FF8016491F6CF4091B80F5091B6
:10222000B90F6091BA0F7091BB0F89EA92E00E94DA
:10223000701A4091B40F5091B50F6091B60F709124
:10224000B70F86EA92E00E94701A69E673E089E4AB
:1022500092E1EFDC6AE089E492E1FBDCFE0164914B
:1022600004E713E0662341F089E492E1F2DC0F5FBA
:102270001F4FF8016491F6CFE3EFF1E064918F0115
:10228000662341F089E492E1E4DC0F5F1F4FF8011F
:102290006491F6CF6AE089E492E1DBDCFE016491AF
:1022A00004E713E0662341F089E492E1D2DC0F5F9A
:1022B0001F4FF8016491F6CF4091BC0F5091BD0FB4
:1022C0006091BE0F7091BF0F8AEE91E00E94701A6C
:1022D0004091A40F5091A50F6091A60F7091A70F88
:1022E00087EE91E00E94701A4091F00F5091F10F2B
:1022F0006091F20F7091F30F84EE91E00E94B01A9A
:102300004091B00F5091B10F6091B20F7091B30F27
:1023100081EE91E00E94701A4091AC0F5091AD0F88
:102320006091AE0F7091AF0F8EED91E00E94701A28
:102330004091A80F5091A90F6091AA0F7091AB0F17
:102340008BED91E00E94701A69E673E089E492E1F6
:1023500070DC6AE089E492E17CDCFE01649104E7D0
:1023600013E0662341F089E492E173DC0F5F1F4FB5
:10237000F8016491F6CFE9ECF1E064918F016623F6
:1023800041F089E492E165DC0F5F1F4FF801649131
:10239000F6CF6AE089E492E15CDCFE01649104E737
:1023A00013E0662341F089E492E153DC0F5F1F4F95
:1023B000F8016491F6CF4091E9055091EA056091EA
:1023C000EB057091EC0580EC91E00E94701A409151
:1023D000ED055091EE056091EF057091F0058DEBE4
:1023E00091E00E94701A4091F1055091F2056091C0
:1023F000F3057091F4058AEB91E00E94701A69E68A
:1024000073E089E492E115DC6AE089E492E121DC81
:10241000FE01649104E713E0662341F089E492E150
:1024200018DC0F5F1F4FF8016491F6CFECEAF1E082
:1024300064918F01662341F089E492E10ADC0F5F29
:102440001F4FF8016491F6CF6AE089E492E101DC64
:10245000FE01649104E713E0662341F089E492E110
:10246000F8DB0F5F1F4FF8016491F6CF40919A019E
:1024700050919B0160919C0170919D0182EA91E0D5
:102480000E94701A60919601709197018091980155
:10249000909199010E940B8DAB01BC018FE991E0F5
:1024A0000E94701A60919201709193018091940141
:1024B000909195010E94178DAB01BC018CE991E0D0
:1024C0000E94701A69E673E089E492E1B2DB6AE087
:1024D00089E492E1BEDBFE01649104E713E0662328
:1024E00041F089E492E1B5DB0F5F1F4FF801649181
:1024F000F6CFE9E8F1E064918F01662341F089E4C9
:1025000092E1A7DB0F5F1F4FF8016491F6CF6AE0FD
:1025100089E492E19EDBFE01649104E713E0662307
:1025200041F089E492E195DB0F5F1F4FF801649160
:10253000F6CF4091DF035091E0036091E103709189
:10254000E20380E891E0CCD74091E3035091E403AB
:102550006091E5037091E6038DE791E0C1D740916A
:10256000E7035091E8036091E9037091EA038AE779
:1025700091E0B6D769E673E089E492E15ADB6AE05C
:1025800089E492E166DBFE01649104E713E06623CF
:1025900041F089E492E15DDB0F5F1F4FF801649128
:1025A000F6CFE7E6F1E064918F01662341F089E41C
:1025B00092E14FDB0F5F1F4FF8016491F6CF6AE0A5
:1025C00089E492E146DBFE01649104E713E06623AF
:1025D00041F089E492E13DDB0F5F1F4FF801649108
:1025E000F6CF40911001509111016091120170914C
:1025F00013018EE591E074D74091140150911501BB
:1026000060911601709117018BE591E069D74091B7
:1026100018015091190160911A0170911B0188E510
:1026200091E05ED769E673E089E492E102DB6AE05B
:1026300089E492E10EDBFE01649104E713E0662376
:1026400041F089E492E105DB0F5F1F4FF8016491CF
:10265000F6CFE1E4F1E064918F01662341F089E473
:1026600092E1F7DA0F5F1F4FF8016491F6CF6AE04D
:1026700089E492E1EEDAFE01649104E713E0662357
:1026800041F089E492E1E5DA0F5F1F4FF8016491B0
:10269000F6CF4091040150910501609106017091BF
:1026A000070188E391E01CD740910801509109018E
:1026B00060910A0170910B0185E391E011D740917F
:1026C0000C0150910D0160910E0170910F0182E398
:1026D00091E006D769E673E089E492E1AADA6AE05C
:1026E00089E492E1DF91CF911F910F91B2CAAF922D
:1026F000BF92CF92DF92EF92FF920F931F93CF93EF
:10270000DF93CDB7DEB7E0970FB6F894DEBF0FBE0C
:10271000CDBF80E1EDEBF1E0DE01919601900D92ED
:102720008A95E1F780E1EDECF1E0DE015196019050
:102730000D928A95E1F780E1EDEDF1E0DE01119671
:1027400001900D928A95E1F76E0181E2C80ED11CCD
:1027500080EDE82E8FE0F82E8E010F5E1F4F60EEA9
:102760007FE0AE014F5F5F4F90ECA92E9FE0B92E46
:1027700020E030E0F60181919191A191B1916F013A
:10278000F70181939193A193B1937F01F801819116
:102790009191A191B1918F01FB0181939193A193AB
:1027A000B193BF01FA0181919191A191B191AF01D2
:1027B000F50181939193A193B1935F012F5F3F4FF7
:1027C00024303105B9F60E94617680E090E8ABE3F1
:1027D000B5E48093B80F9093B90FA093BA0FB0935C
:1027E000BB0F8093B40F9093B50FA093B60FB09327
:1027F000B70F1092BC0F1092BD0F1092BE0F109227
:10280000BF0F80E29EE4A0E0B0E08093F00F9093D1
:10281000F10FA093F20FB093F30F1092A40F109248
:10282000A50F1092A60F1092A70F80E090E0A0EAEB
:10283000B1E48093B00F9093B10FA093B20FB09317
:10284000B30F4DEC5CEC6CEC7EE34093AC0F50931B
:10285000AD0F6093AE0F7093AF0F40E050E060EAB1
:1028600070E44093A80F5093A90F6093AA0F709340
:10287000AB0F1092F1051092F2051092F305109231
:10288000F4051092ED051092EE051092EF051092EE
:10289000F0051092E9051092EA051092EB051092EE
:1028A000EC0524EB30E030937D1120937C1126E47D
:1028B00030E030937B1120937A112FEF30E030938A
:1028C00079112093781140EF50E0509377114093A5
:1028D000761144E650E05093751140937411309393
:1028E0007311209372118093040190930501A093BA
:1028F0000601B0930701109208011092090110928D
:102900000A0110920B0110920C0110920D0110920D
:102910000E0110920F018FE195E8A2E0B2E48093DE
:102920009A0190939B01A0939C01B0939D016DE34C
:102930007AE087E790E40E94058D6093960170939A
:102940009701809398019093990165E87BEE89E85F
:1029500092E40E94118D6093920170939301809391
:102960009401909395010E944C8280E090E0A0E851
:10297000BFE380938E0190938F01A0939001B09359
:1029800091011092DF031092E0031092E103109284
:10299000E2031092E3031092E4031092E503109215
:1029A000E6031092E7031092E8031092E9031092F5
:1029B000EA0380E090E0A8ECB2E4809310019093E9
:1029C0001101A0931201B09313018093140190930D
:1029D0001501A0931601B0931701809318019093ED
:1029E0001901A0931A01B0931B01E4E7F3E064918D
:1029F0008F01662341F089E492E12BD90F5F1F4FCD
:102A0000F8016491F6CFE6EFF0E064918F01662360
:102A100041F089E492E11DD90F5F1F4FF8016491E5
:102A2000F6CF6AE089E492E1E0960FB6F894DEBF53
:102A30000FBECDBFDF91CF911F910F91FF90EF900F
:102A4000DF90CF90BF90AF9004C90F931F93CF93A7
:102A5000DF93CDB7DEB72C970FB6F894DEBF0FBE6D
:102A6000CDBF84E690E09C878B8786E591E3A1E368
:102A7000B0E089839A83AB83BC8344E0BE016B5F83
:102A80007F4FCE010B9621D943E050E0BE016B5F32
:102A90007F4FCE0101960E9439CA892B09F0E1C00F
:102AA00040E160ED7FE0CE010B960FD940E160EE92
:102AB0007FE0CE010B9609D940E160EC7FE0CE01CA
:102AC0000B9603D90E94617644E068EB7FE0CE016B
:102AD0000B96FBD844E064EB7FE0CE010B96F5D873
:102AE00044E06CEB7FE0CE010B96EFD844E064EA63
:102AF0007FE0CE010B96E9D844E060EF7FE0CE01A5
:102B00000B96E3D844E060EB7FE0CE010B96DDD876
:102B100044E06CEA7FE0CE010B96D7D844E068EA47
:102B20007FE0CE010B96D1D84CE069EE75E0CE0186
:102B30000B96CBD842E06CE771E1CE010B96C5D87D
:102B400042E06AE771E1CE010B96BFD842E068E748
:102B500071E1CE010B96B9D842E066E771E1CE0192
:102B60000B96B3D842E064E771E1CE010B96ADD885
:102B700042E062E771E1CE010B96A7D844E064E041
:102B800071E0CE010B96A1D844E068E071E0CE017F
:102B90000B969BD844E06CE071E0CE010B9695D883
:102BA00044E06AE971E0CE010B968FD844E066E913
:102BB00071E0CE010B9689D844E062E971E0CE0164
:102BC0000B9683D842E0BE01675F7F4FCE010B9624
:102BD0007CD844E06FED73E0CE010B9676D844E0EC
:102BE00060E171E0CE010B9670D844E063EE73E0D3
:102BF000CE010B966AD844E064E171E0CE010B96F9
:102C000064D844E067EE73E0CE010B965ED844E0F2
:102C100068E171E0CE010B9658D80E944C82E4E73F
:102C2000F3E064918F01662341F089E492E111D8C9
:102C30000F5F1F4FF8016491F6CFE8E1F1E0649176
:102C40008F01662341F089E492E103D80F5F1F4FA3
:102C5000F8016491F6CF6AE089E492E10E94290EBE
:102C600001C045DD72D92C960FB6F894DEBF0FBEB9
:102C7000CDBFDF91CF911F910F91089580912101D8
:102C800090912201A0912301B091240180939B0592
:102C900090939C05A0939D05B0939E05809135016E
:102CA00090913601909306068093050684E690E0A5
:102CB00090933601809335010FB6F89480913E12BF
:102CC00090913F12A0914012B09141120FBE80939B
:102CD000FA039093FB03A093FC03B093FD0381E000
:102CE0000C946B7780E00E946B7780919B059091AC
:102CF0009C05A0919D05B0919E0580932101909324
:102D00002201A0932301B0932401809105069091A4
:102D1000060690933601809335010FB6F8948091A2
:102D20003E1290913F12A0914012B09141120FBEFD
:102D30008093FA039093FB03A093FC03B093FD03ED
:102D400008954F925F926F927F928F929F92AF926F
:102D5000BF92CF92DF92EF92FF920F931F9340901A
:102D60002101509022016090230170902401812C58
:102D7000E0E49E2EECE9AE2EE5E4BE2E8092210129
:102D800090922201A0922301B09224016093F50554
:102D90007093F6058093F7059093F8052093F90555
:102DA0003093FA054093FB055093FC05E092FD0536
:102DB000F092FE050093FF0510930006E1ECF5E0AC
:102DC000FF93EF93FBEA8F2EFAEA9F2EF6EAAF2EDF
:102DD000F2E4BF2EA1E0CA2EA6E0DA2E0E94E66A37
:102DE0000E94227E40922101509222016092230192
:102DF000709224010F900F901F910F91FF90EF9010
:102E0000DF90CF90BF90AF909F908F907F906F900A
:102E10005F904F9008954F925F926F927F928F9242
:102E20009F92AF92BF92CF92DF92EF92FF920F9359
:102E30001F93CF93DF9387E591E00E94D8B4609110
:102E40003F01709140018091410190914201609356
:102E5000210170932201809323019093240120E0AB
:102E600030E040E752E40E94DBC24B015C01B9EF65
:102E70006B2EB5E07B2EF30120813181428153819D
:102E8000C5EFD5E0688179818A819B81E1ECF5E02D
:102E9000FF93EF9311E0C12E16E0D12EE12CF12C1F
:102EA00000E211EC0E94E66A0E94227E82E00E940B
:102EB0008A7E4B015C01F301208131814281538183
:102EC000688179818A819B81850174010E94537593
:102ED000CBE4D9E0FE012591359145915491C5018E
:102EE000B4010E94FBC12B013C0120E030E040E72F
:102EF00052E460912101709122018091230190910F
:102F000024010E94DBC24B015C012091F905309144
:102F1000FA054091FB055091FC056091F505709113
:102F2000F6058091F7059091F805E1ECF5E0FF9347
:102F3000EF93830172010E94E66A0E94227E20E0E4
:102F400030E040E85EE360913F0170914001809184
:102F50004101909142010E94A9C5609321017093A3
:102F600022018093230190932401FE01C590D59006
:102F7000E590F49020E030E040E752E40E94DBC2AC
:102F80004B015C01A7019601C701B6010E94FBC17C
:102F90009B01AC01C301B2010E94FAC17B018C010B
:102FA000C9EFD5E0288139814A815B81F5EF6F2E29
:102FB000F5E07F2EF3016081718182819381E1ECE4
:102FC000F5E0FF93EF93A1E0CA2EA6E0DA2E0E946F
:102FD000E66A0E94227E82E00E948A7E7B018C014A
:102FE0006093FD057093FE058093FF0590930006A6
:102FF000288139814A815B81F301608171818281FD
:1030000093810E9453750F900F900F900F900F9027
:103010000F90DF91CF911F910F91FF90EF90DF9074
:10302000CF90BF90AF909F908F907F906F905F9068
:103030004F9008952F923F924F925F926F927F929E
:103040008F929F92AF92BF92CF92DF92EF92FF92B8
:103050000F931F93CF93DF93CDB7DEB760970FB673
:10306000F894DEBF0FBECDBF9E878D87FC01E05C6C
:10307000F64FB4903C01660C771C660C771C9301EC
:103080002B503A4F388B2F87F90110821182128210
:103090001382EDEFF5E0E080F18002811381E9EF2A
:1030A000F5E02081318142815381E5EFF5E06081D7
:1030B000718182819381E1E0CE2EE6E0DE2E0E94D6
:1030C00053752091DF033091E0034091E10350916B
:1030D000E2036091100170911101809112019091B1
:1030E00013010E94FAC169837A838B839C832091A8
:1030F000E3033091E4034091E5035091E6036091CE
:1031000014017091150180911601909117010E9490
:10311000FAC16D837E838F8398872091E703309176
:10312000E8034091E9035091EA036091180170911E
:10313000190180911A0190911B010E94FAC16987BF
:103140007A878B879C87FE01E60DF71DC180D280B0
:10315000E380F4806B2D772767FD7095872F972F7D
:103160000E9476C31B012C01830101551A4F20E0F8
:1031700030E040EC5FE3C701B6010E94A9C5A2019F
:1031800091010E94A9C5F8016083718382839383B2
:10319000F301E95CFE4F60817181828193816093CC
:1031A000210170932201809323019093240120E058
:1031B00030E040E752E40E94DBC24B015C01E0904A
:1031C000B705F090B8050091B9051091BA052091A6
:1031D000B3053091B4054091B5055091B6056091A5
:1031E000AF057091B0058091B1059091B205E1EC09
:1031F000F5E0FF93EF93FBEBCF2EF5E0DF2E0E947F
:10320000E66A0E94227EEF85F8891082118212827E
:103210001382EDEFF5E0E080F18002811381E9EFA8
:10322000F5E02081318142815381E5EFF5E0608155
:10323000718182819381A1E0CA2EA6E0DA2E0E94DC
:10324000537593012D5B364F3901F90185919591A5
:10325000A591B4910D851E85000F111F000F111F40
:1032600001551A4FBC01CD019058A20191010E9455
:10327000A9C5F801608371838283938320E030E0E5
:1032800040E752E460912101709122018091230175
:10329000909124010E94DBC24B015C01E090B705D4
:1032A000F090B8050091B9051091BA052091B305C9
:1032B0003091B4054091B5055091B6056091AF05C8
:1032C0007091B0058091B1059091B205E1ECF5E007
:1032D000FF93EF93EBEBCE2EE5E0DE2E0E94E66A45
:1032E0000E94227EF30165917591859194916D8480
:1032F0007E84660C771C660C771C930121553A4F2F
:10330000388B2F879B01AC010E94FBC1A201910168
:103310000E94A9C5EF85F8896083718382839383B6
:10332000F301E95CFE4F20E030E040E05FE36081C4
:103330007181828193810E94A9C56093210170935C
:103340002201809323019093240120E030E040E7A4
:1033500052E40E94DBC24B015C01E090B705F090A3
:10336000B8050091B9051091BA052091B3053091C7
:10337000B4054091B5055091B6056091AF057091C7
:10338000B0058091B1059091B205E1ECF5E0FF93B5
:10339000EF930E94E66A0E94227E8091DF03909163
:1033A000E003A091E103B091E20389839A83AB83A8
:1033B000BC838091E3039091E403A091E503B09175
:1033C000E6038D839E83AF83B8878091E703909156
:1033D000E803A091E903B091EA0389879A87AB8754
:1033E000BC87FE01E60DF71D6181728183819481A6
:1033F000F301E751FA4FC080D180E280F380A7014A
:1034000096010E94FBC14B015C01F301EB50FA4FA6
:103410006083718382839383830103521A4FF30184
:10342000E152FC4FA70196016081718182819381F5
:103430000E94FBC1F80160837183828393838301BF
:10344000095D1E4FF301E05FFE4FA7019601608109
:103450007181828193810E94FBC1F8016083718335
:1034600082839383EF85F88980829182A282B382DE
:103470001092210110922201109223011092240136
:103480000E946477ED85FE85E652FA4F81E08083E5
:103490000F900F900F900F900F900F9060960FB6B7
:1034A000F894DEBF0FBECDBFDF91CF911F910F917A
:1034B000FF90EF90DF90CF90BF90AF909F908F9054
:1034C0007F906F905F904F903F902F900895AB0149
:1034D000662757FD6095762F0C9452BF0C945FBF02
:1034E000CF92DF92EF92FF92CF93DF93EC016A01CC
:1034F0007B01FE016491662331F089E492E10E9430
:10350000290E2196F6CF22E030E0B701A60189E42A
:1035100092E1DF91CF91FF90EF90DF90CF90DECFDF
:10352000CF92DF92EF92FF92CF93DF93EC016A018B
:103530007B01FE016491662331F089E492E10E94EF
:10354000290E2196F6CF22E030E0B701A60189E4EA
:1035500092E1DF91CF91FF90EF90DF90CF90BECFBF
:10356000CF92DF92EF92FF92CF93DF93EC016A014B
:103570007B01FE016491662331F089E492E10E94AF
:10358000290E2196F6CF20E0B701A60189E492E149
:10359000DF91CF91FF90EF90DF90CF900C94F6BE2B
:1035A000CF93DF9300D0CDB7DEB780913B129091DF
:1035B0003C129E012F5F3F4F009719F42555324171
:1035C00002C0281B390B3A83298389819A810F9085
:1035D0000F90DF91CF910895CF93DF932091040452
:1035E00030910504243031050CF065C0409106048B
:1035F0005091070460E6649F9001659F300D11248F
:10360000BC01C901825F9B4F0E9432CAEFE4F9E01E
:103610006491EF01662341F089E492E10E94290E52
:103620002196FE016491F6CFE5E3F9E06491EF01A4
:10363000662341F089E492E10E94290E2196FE0161
:103640006491F6CF809106049091070420E6289FAC
:10365000B001299F700D1124625F7B4F89E492E1D4
:103660000E94190EE3E3F9E06491EF01662341F053
:1036700089E492E10E94290E2196FE016491F6CF21
:103680006AE089E492E10E94290E809106049091FB
:103690000704019664E070E00E9492C690930704CC
:1036A0008093060480910404909105040196909300
:1036B000050480930404DF91CF910895CF93DF93A5
:1036C0002091040430910504243031050CF065C0CC
:1036D000409106045091070460E6649F9001659F45
:1036E000300D1124BC01C901825F9B4F0E94B5C9F6
:1036F000EFE4F9E06491EF01662341F089E492E19F
:103700000E94290E2196FE016491F6CFE8E2F9E0CD
:103710006491EF01662341F089E492E10E94290E51
:103720002196FE016491F6CF8091060490910704E2
:1037300020E6289FB001299F700D1124625F7B4F06
:1037400089E492E10E94190EE6E2F9E06491EF014A
:10375000662341F089E492E10E94290E2196FE0140
:103760006491F6CF6AE089E492E10E94290E80918B
:10377000060490910704019664E070E00E9492C6EE
:1037800090930704809306048091040490910504AB
:1037900001969093050480930404DF91CF910895DE
:1037A000FF920F931F93CF93DF9380E885BF85BF70
:1037B00040E950ED63E070E089E492E10E947AC153
:1037C000E0E2F9E06491EF01662341F089E492E1DF
:1037D0000E94290E2196FE016491F6CF6AE089E4E9
:1037E00092E10E94290ECFE4D9E0FE0164918E019E
:1037F000662349F089E492E10E94290E0F5F1F4F72
:10380000F8016491F5CFF4B6F0FE14C0E8E1F9E0F8
:1038100064918F01662349F089E492E10E94290EA8
:103820000F5F1F4FF8016491F5CF6AE089E492E1E0
:103830000E94290EF1FE14C0E8E0F9E064918F01C6
:10384000662349F089E492E10E94290E0F5F1F4F21
:10385000F8016491F5CF6AE089E492E10E94290EB3
:10386000F2FE14C0E7EFF8E064918F01662349F09F
:1038700089E492E10E94290E0F5F1F4FF8016491C5
:10388000F5CF6AE089E492E10E94290EF3FE14C0AC
:10389000E7EEF8E064918F01662349F089E492E154
:1038A0000E94290E0F5F1F4FF8016491F5CF6AE067
:1038B00089E492E10E94290EF5FE14C0E7EDF8E0DC
:1038C00064918F01662349F089E492E10E94290EF8
:1038D0000F5F1F4FF8016491F5CF6AE089E492E130
:1038E0000E94290E14BEEFECF8E064918F0166236C
:1038F00049F089E492E10E94290E0F5F1F4FF80101
:103900006491F5CFE9ECF8E064918F01662349F00A
:1039100089E492E10E94290E0F5F1F4FF801649124
:10392000F5CF6AE089E492E10E94290EFE016491DC
:103930000FE419E0662349F089E492E10E94290E20
:103940000F5F1F4FF8016491F5CFE9EBF8E0649148
:103950008F01662349F089E492E10E94290E0F5FEE
:103960001F4FF8016491F5CFE4EAF8E064918F010C
:10397000662349F089E492E10E94290E0F5F1F4FF0
:10398000F8016491F5CFE8E9F8E064918F016623CE
:1039900049F089E492E10E94290E0F5F1F4FF80160
:1039A0006491F5CFECE7F8E064918F01662349F06C
:1039B00089E492E10E94290E0F5F1F4FF801649184
:1039C000F5CF6AE089E492E10E94290EE1E7F8E090
:1039D00064918F01662349F089E492E10E94290EE7
:1039E0000F5F1F4FF8016491F5CFE5E6F8E06491B1
:1039F0008F01662349F089E492E10E94290E0F5F4E
:103A00001F4FF8016491F5CF6AE089E492E10E94CA
:103A1000290EFE0164910FE419E0662349F089E460
:103A200092E10E94290E0F5F1F4FF8016491F5CFBC
:103A3000E6E5F8E06491EF01662341F089E492E164
:103A40000E94290E2196FE016491F6CFA9DDBC01EA
:103A500089E492E13CDDEFE3F8E06491EF01662355
:103A600041F089E492E10E94290E2196FE016491C1
:103A7000F6CF60ED74E089E492E129DD6AE089E443
:103A800092E10E94290E10920A0410920B041092E7
:103A90000C0410920D040E9425150E94D3840E94EC
:103AA00063690E94CD7E0E94C47D0E94BF9CFFEF8F
:103AB00023ED80E3F15020408040E1F700C000009A
:103AC000DF91CF911F910F91FF9008958091FE0398
:103AD0009091FF0360E070E001960C940CC7809118
:103AE000FE039091FF034AE050E060E070E0019631
:103AF0000C9474C8682F772767FD7095209108048F
:103B00003091090440E6429FC001439F900D11246B
:103B1000825F9B4F0E9427CA9093FF038093FE030E
:103B200021E0892B09F420E0822F0895CF93DF93C1
:103B30000FB6F89480913E1290913F12A0914012DE
:103B4000B09141120FBE8093FA039093FB03A093B0
:103B5000FC03B093FD03E0910804F0910904E65FD3
:103B6000FB4F8081811115C0E2E2F4E06491EF0126
:103B7000662341F089E492E10E94290E2196FE011C
:103B80006491F6CF6AE089E492E1DF91CF910C94E1
:103B9000290EDF91CF9108958F929F92AF92BF929D
:103BA000CF92DF92EF92FF920F931F93CF93DF9309
:103BB000A5E3EA2EA3E0FA2E05EF15E0CFEAD5E063
:103BC000B7E0CB2EB6E0DB2EF70181917F0192DFCB
:103BD000882311F17BDF4B015C01F60180818111AB
:103BE00003C060918E0501C061E070E080E090E06C
:103BF0000E9476C3F80120813181428153810E9465
:103C0000A9C59B01AC01C501B4010E94FBC1688339
:103C100079838A839B8309C0F80180819181A28185
:103C2000B38188839983AA83BB830C5F1F4F24963B
:103C3000FFEFCF1ADF0A89E3E81683E0F80621F6E2
:103C400086E458DF8823D1F041DF6B017C0160936B
:103C50009F057093A0058093A1059093A20520E095
:103C600030E0A9010E94D7C4181644F4C092210183
:103C7000D0922201E0922301F0922401DF91CF91B2
:103C80001F910F91FF90EF90DF90CF90BF90AF907A
:103C90009F908F90089580DF89E42CDF882351F076
:103CA00015DF6093A3057093A4058093A5059093F9
:103CB000A60508C01092A3051092A4051092A505B0
:103CC0001092A6058AE416DF882351F0FFDE609388
:103CD000A7057093A8058093A9059093AA05089558
:103CE0001092A7051092A8051092A9051092AA0596
:103CF0000895CF92DF92EF92FF92CF93DF93EC0182
:103D0000C090DD05D090DE05E090DF05F090E00585
:103D1000A7019601688179818A819B810E94D4C222
:103D200087FF04C0C882D982EA82FB82C090E10585
:103D3000D090E205E090E305F090E405A70196013C
:103D40006C817D818E819F810E94D4C287FF04C0D7
:103D5000CC82DD82EE82FF82C090E505D090E60540
:103D6000E090E705F090E805A70196016885798560
:103D70008A859B850E94D4C287FF04C0C886D986E5
:103D8000EA86FB86C0902701D0902801E0902901A7
:103D9000F0902A01A7019601688179818A819B812F
:103DA0000E94D7C4181624F4C882D982EA82FB8202
:103DB000C0902B01D0902C01E0902D01F0902E01AD
:103DC000A70196016C817D818E819F810E94D7C45D
:103DD000181624F4CC82DD82EE82FF82C0902F017F
:103DE000D0903001E0903101F0903201A7019601AE
:103DF000688579858A859B850E94D7C4181624F426
:103E0000C886D986EA86FB86DF91CF91FF90EF9036
:103E1000DF90CF9008954F925F926F927F928F9232
:103E20009F92AF92BF92CF92DF92EF92FF920F9349
:103E30001F93CF93DF93CDB7DEB728970FB6F894D3
:103E4000DEBF0FBECDBF8FEA95E053DF0FB6F8940B
:103E500080913E1290913F12A0914012B091411278
:103E60000FBE8093FA039093FB03A093FC03B093DF
:103E7000FD032091AF053091B0054091B1055091FF
:103E8000B20529833A834B835C836091F505709179
:103E9000F6058091F7059091F8050E94D4C24090F4
:103EA000B3055090B4056090B5057090B6052091AB
:103EB000B7053091B8054091B9055091BA052D83E9
:103EC0003E834F83588781118BC0A301920160917B
:103ED000F9057091FA058091FB059091FC050E940F
:103EE000D4C281117DC020E030E040E752E460910F
:103EF00021017091220180912301909124010E945F
:103F0000DBC24B015C0181EC95E09F938F931BEB2F
:103F1000C12E15E0D12EED80FE800F811885A30102
:103F2000920169817A818B819C810E94E66A0F905F
:103F30000F908091AF059091B005A091B105B0911F
:103F4000B2058093F5059093F605A093F705B0931D
:103F5000F8058091B3059091B405A091B505B09195
:103F6000B6058093F9059093FA05A093FB05B093ED
:103F7000FC058091B7059091B805A091B905B09165
:103F8000BA058093FD059093FE05A093FF05B093BD
:103F900000068091BB059091BC05A091BD05B09134
:103FA000BE058093010690930206A0930306B0938A
:103FB000040628960FB6F894DEBF0FBECDBFDF9182
:103FC000CF911F910F91FF90EF90DF90CF90BF9016
:103FD000AF909F908F907F906F905F904F900895DB
:103FE0006091350170913601882777FD8095982F73
:103FF0000E9476C32091210130912201409123013A
:10400000509124010E94A9C520E030E040E752E42D
:104010000E94DBC220E030E048EC52E470CFAF9267
:10402000BF92CF92DF92EF92FF920F931F93CF93A5
:10403000DF93D82F2091A7053091A8054091A905BD
:104040005091AA056091A3057091A4058091A505E2
:104050009091A6050E94E4C4C62F172F082FF92EB1
:104060006091350170913601882777FD8095982FF2
:104070000E9476C3209121013091220140912301B9
:10408000509124010E94A9C520E030E040E752E4AD
:104090000E94DBC220E030E048EC52E40E94DBC228
:1040A0002091C1052F93DF93FF920F931F93CF931E
:1040B0005B016C0102E0E02E01E020E043EA55E004
:1040C0006FEA75E085EF95E00E9482628091AF050E
:1040D0009091B005A091B105B091B2058093F5051E
:1040E0009093F605A093F705B093F8058091B3057A
:1040F0009091B405A091B505B091B6058093F905EE
:104100009093FA05A093FB05B093FC058091B70549
:104110009091B805A091B905B091BA058093FD05BD
:104120009093FE05A093FF05B09300068091BB0518
:104130009091BC05A091BD05B091BE05809301068C
:1041400090930206A0930306B09304060FB6F8946A
:1041500080913E1290913F12A0914012B091411275
:104160000FBE8093FA039093FB03A093FC03B093DC
:10417000FD030F900F900F900F900F900F90DF9115
:10418000CF911F910F91FF90EF90DF90CF90BF9054
:10419000AF900895F8940E94F185779A1092DA050D
:1041A000769A1092DB05479A1092DC05439A8C9A16
:1041B0008D9AE5E5F9E06491EF01662341F089E429
:1041C00092E10E94290E2196FE016491F6CFE3E070
:1041D000F4E06491EF01662341F089E492E10E94EA
:1041E000290E2196FE016491F6CF6AE089E492E1FE
:1041F0000E94290E8AEF93E00E94619CFFCF0F93EB
:104200001F930FB6F89480913E1290913F12A091A7
:104210004012B09141120FBE0091FA031091FB03BE
:104220002091FC033091FD034091F6035091F70378
:104230006091F8037091F903801B910BA20BB30BF3
:10424000481759076A077B0728F4452B462B472B4D
:1042500009F0A0DF40911D0150911E0160911F01E6
:10426000709120014115510561057105D1F00FB61E
:10427000F89480913E1290913F12A0914012B0911B
:1042800041120FBE801B910BA20BB30B48175907AD
:104290006A077B0730F490919E0A80919D0A9817D7
:1042A00021F01F910F910C94AC6A779A1092DA0565
:1042B000769A1092DB05479A1092DC05439A8C9A05
:1042C0008D9AEFCFCF93DF930E94F1858091EC031D
:1042D00081113AC081E08093EC0380919305909125
:1042E0009405A0919505B091960580938F059093C4
:1042F0009005A0939105B0939205E5E5F9E06491EE
:10430000EF01662341F089E492E10E94290E219693
:10431000FE016491F6CFE4E8F3E06491EF016623D7
:1043200041F089E492E10E94290E2196FE016491F8
:10433000F6CF6AE089E492E10E94290E8AE793E0D1
:10434000DF91CF910C94529CDF91CF910895809191
:10435000EC0308950F931F93CF93DF93EC018091AB
:10436000C1058093ED0384E5C5DB811102C080E0C7
:1043700042C0ACDB0E9448C36093ED036330B8F3E6
:10438000EFE4F9E064918F01662349F089E492E15A
:104390000E94290E0F5F1F4FF8016491F5CFC936B7
:1043A000D10581F034F4C836D105A9F46DE272E08C
:1043B0000EC0CD36D10549F0CA3DD10561F462E7A2
:1043C00072E005C064E472E002C06BE572E089E46B
:1043D00092E10E94190E4091ED0350E060E070E020
:1043E00020E089E492E10E94F6BE6AE089E492E16D
:1043F0000E94290E81E0DF91CF911F910F910895C6
:104400002DE333E0FC01318320832681222319F040
:1044100003960C94664C08958F929F92AF92BF9230
:10442000CF92DF92EF92FF920F931F93CF93DF9380
:104430008C0182549E4FE4DF68018DE6C80ED11CCA
:10444000C114D10421F1780187E6E81A8EEFF80A49
:10445000E70157018EE1A81AB1088DE3882E83E0A9
:10446000982ECC15DD0599F0FE01EE19FF09EA0D35
:10447000FB1D91828082FE0178978081811102C0AC
:104480006E97EFCFCE014B970E94664CF9CFC801D3
:10449000815B9F4FB5DFC8018F96DF91CF911F9150
:1044A0000F91FF90EF90DF90CF90BF90AF909F90D3
:1044B0008F90A6CF8BE096E00C9496558BE096E01B
:1044C000ABCFCF93DF9389E492E10E94E1C1E5E2B3
:1044D000F4E06491EF01662341F089E492E10E94E7
:1044E000290E2196FE016491F6CF409193055091DB
:1044F000940560919505709196054F5F5F4F6F4FE2
:104500007F4F89E492E10E9452BF6AE089E492E120
:104510000E94290EDF91CF9109CB2F923F924F92AB
:104520005F926F927F928F929F92AF92BF92CF9243
:10453000DF92EF92FF920F931F93CF93DF93CDB74C
:10454000DEB76E970FB6F894DEBF0FBECDBF60E644
:10455000962E04E010E072E0E72E77E0F72EE8E711
:10456000CE2EE7E0DE2E8824839489E492E10E9437
:104570000EC0181619063CF48091040490910504AD
:1045800004970CF448C080910D06882309F472C387
:104590008091010490910204892B09F06BC38091F2
:1045A000040490910504892B11F41092DE032CE38E
:1045B000C22ED12CE12CF12C30E1432E3EE0532EC3
:1045C000612C712C8E010F5F1F4F90E6292E332432
:1045D00033944091810850918208609183087091D2
:1045E00084088091790890917A08A0917B08B09115
:1045F0007C08481759076A077B0708F03BC380917E
:1046000004049091050404970CF034C38091DE03F8
:10461000811130C308C289E492E10E9447C08093AF
:10462000030420910104309102048A3061F08D303E
:1046300051F08A3321F490910004992321F02F3511
:1046400031050CF45FC12115310509F479C1809160
:10465000060490910704989E5001999EB00C112475
:10466000F501E20FF31FE25FFB4F1082209100047F
:10467000211143C110920004FC01E65FFB4F108240
:10468000C501825F9B4F3C016EE470E00E9427CA27
:10469000009709F46EC09093FF038093FE03861980
:1046A00097098A0D9B1D4AE050E060E070E0815F51
:1046B0009B4F0E9474C860939705709398058093F0
:1046C000990590939A0540909305509094056090B9
:1046D000950570909605AFEF4A1A5A0A6A0A7A0A47
:1046E000A0900604B090070464157505860597052B
:1046F00009F429C19A9CC0019B9C900D112461E290
:1047000078E0825F9B4F0E94ECC9892B09F01BC1A6
:10471000E5E5F9E064918F01662349F089E492E1CF
:104720000E94290E0F5F1F4FF8016491F5CFEEEE46
:10473000F7E064918F01662349F089E492E10E94D9
:10474000290E0F5F1F4FF8016491F5CF409193053B
:1047500050919405609195057091960589E492E1D8
:104760000E9452BF6AE089E492E10E94290EA9DE0C
:1047700037C06AE270E0C3010E9427CA892B09F49E
:1047800044C0E5E5F9E064918F01662349F089E4CE
:1047900092E10E94290E0F5F1F4FF8016491F5CF3F
:1047A000EBE7F7E064918F01662349F089E492E139
:1047B0000E94290E0F5F1F4FF8016491F5CF4091C1
:1047C000930550919405609195057091960589E443
:1047D00092E10E9452BF6AE089E492E10E94290EB0
:1047E000109202041092010445C2809197059091A5
:1047F0009805A0919905B0919A058093930590939F
:104800009405A0939505B093960580910604909128
:104810000704989E5001999EB00C1124C501825F37
:104820009B4F3C0167E470E00E9427CA009709F49F
:104830004FC09093FF038093FE03861997098A0D5A
:104840009B1D60E070E0815F9B4F0E940CC70E943F
:1048500043C36430710508F03BC08091EC038111C3
:104860001CC080910B06811133C0F601649158E79A
:10487000A52E57E0B52E662351F089E492E10E94FF
:10488000290EFFEFAF1ABF0AF5016491F4CF6AE079
:1048900089E492E10E94290E1BC0F701649142E075
:1048A000A42E47E0B42E662351F089E492E10E94E1
:1048B000290EFFEFAF1ABF0AF5016491F4CF6AE049
:1048C00089E492E10E94290E88EF96E00E94529CB2
:1048D00080910604909107040196B8010E9492C647
:1048E000909307048093060480910404909105043A
:1048F0000196909305048093040410920204109290
:10490000010433CE8B3311F48092000490910004A3
:1049100091112BCE4091060450910704B9016F5FAD
:104920007F4F7093020460930104949EF001959E62
:10493000F00D1124E20FF31FE25FFB4F808315CED1
:104940001092000497C19A9C30019B9C700C11241A
:10495000C301825F9B4F2C016AE270E00E9427CA6C
:104960000097F9F4E5E5F9E064918F01662349F0D9
:1049700089E492E10E94290E0F5F1F4FF8016491B4
:10498000F5CFE5EAF7E064918F01662309F4DECE06
:1049900089E492E10E94290E0F5F1F4FF801649194
:1049A000F4CF20E0B12CF301E20FF11DE25FFB4FE9
:1049B00030813A3219F02F5FB326F5CF9093FF0381
:1049C0008093FE0384199509860D971D60E070E0C1
:1049D000815F9B4F0E940CC70E9443C32B2D30E088
:1049E0002617370709F401CFE5E5F9E064918F0157
:1049F000662349F089E492E10E94290E0F5F1F4F60
:104A0000F8016491F5CFEFECF7E064918F01662334
:104A100009F49CCE89E492E10E94290E0F5F1F4F9A
:104A2000F8016491F4CF8091D4079091D507A091BB
:104A3000D607B091D7078093810890938208A093FE
:104A40008308B09384088CEC97E00E94BA4A482F00
:104A5000809303048A30B9F04D30A9F0433229F431
:104A600020910004222379F002C04A33C9F3209137
:104A70000104309102042F3531052CF48F3FFFEFF4
:104A80009F0709F0D9C04091810850918208609138
:104A90008308709184088091790890917A08A09198
:104AA0007B08B0917C08481759076A077B0708F410
:104AB00089C0E5EEF6E064915F01662351F089E478
:104AC00092E10E94290EFFEFAF1ABF0AF50164912F
:104AD000F4CF6AE089E492E10E94290E0FB6F894BF
:104AE00080913E1290913F12A0914012B0914112DC
:104AF0000FBE8093EE039093EF03A093F003B09367
:104B0000F1034091F2035091F3036091F40370912B
:104B1000F5034C015D01841A950AA60AB70AC5017E
:104B2000B40128EE33E040E050E00E94A5C6490100
:104B30005A01CA01B901A70196010E94A5C6CA017E
:104B4000B901A70196010E94A5C67F936F93C50185
:104B5000B401A30192010E94A5C63F932F93A1ED3A
:104B6000B6E0BF93AF931F930F930E9456CAEFE432
:104B7000F9E064910FB6F894DEBF0FBECDBF5F01C0
:104B8000662351F089E492E10E94290E9FEFA91A51
:104B9000B90AF5016491F4CFB80189E492E10E9469
:104BA000190E6AE089E492E10E94290EC8010E9470
:104BB000439C8BE096E00E947C6061E08BE096E095
:104BC0000E94DD5D80910304833211F43092DE0394
:104BD00020910104309102042115310509F4B0CE71
:104BE0008091060490910704289EF001299EF00D03
:104BF0001124E20FF31FE25FFB4F1082FC01E65F1E
:104C0000FB4F308220910404309105042F5F3F4F09
:104C10003093050420930404019664E070E00E9440
:104C200092C6909307048093060410920004109299
:104C3000020410920104CDCC4B3311F430920004E5
:104C4000409100044111C1CC4091060450910704E9
:104C5000B9016F5F7F4F7093020460930104249E3B
:104C6000F001259EF00D1124E20FF31FE25FFB4FD0
:104C70008083AFCC6E960FB6F894DEBF0FBECDBF6B
:104C8000DF91CF911F910F91FF90EF90DF90CF9028
:104C9000BF90AF909F908F907F906F905F904F905C
:104CA0003F902F9008952F923F924F925F926F9274
:104CB0007F928F929F92AF92BF92CF92DF92EF92AC
:104CC000FF920F931F93CF93DF93CDB7DEB7C25AF6
:104CD000D1090FB6F894DEBF0FBECDBF87E40E94A6
:104CE0007A1D882311F40C9438320E94661D0E94AC
:104CF00043C36C31710509F4C6C09CF46230710580
:104D000009F44FC024F477FF43C00C947843633018
:104D1000710509F44EC06430710509F454C00C9457
:104D200078436A35710511F40C94CD312CF56D3151
:104D3000710509F443C46E31710511F00C94784388
:104D40000E94227E0E943E1680913F019091400178
:104D5000A0914101B09142018093210190932201E1
:104D6000A0932301B09324010E940B17E1E3F6E026
:104D700064918F010C9467316B35710511F40C94BB
:104D8000D1316C35710511F40C94D6310C94784303
:104D90008091EC03811105C00E94CC1D3CD80C947D
:104DA0002A458091EC03811104C00E944B1E81E0D2
:104DB00007C08091EC03811106C00E944B1E80E069
:104DC0002ED90C942A4588EC96E00E94529C80E5EE
:104DD0000E947A1D882339F00E94661D0E9448C3F4
:104DE0006B017C0103C0C12CD12C760183E50E94AC
:104DF0007A1D882361F00E94661D20E030E04AE7BA
:104E000054E40E94A9C50E9448C36B017C010E9422
:104E1000227E0FB6F89480903E1290903F12A090A0
:104E20004012B09041120FBE8C0C9D1CAE1CBF1CDA
:104E30000FB6F89480913E1290913F12A0914012CB
:104E4000B09141120FBE8093FA039093FB03A0939D
:104E5000FC03B093FD030FB6F89480913E1290913D
:104E60003F12A0914012B09141120FBE88159905D2
:104E7000AA05BB0510F00C9478430E947E82BFD92E
:104E80000E94709DE8CF87E591E00E94D8B48091A0
:104E9000210190912201A0912301B09124018093DE
:104EA0009B0590939C05A0939D05B0939E058091D2
:104EB000350190913601909306068093050684E6AD
:104EC00090E090933601809335010FB6F89480916D
:104ED0003E1290913F12A0914012B09141120FBE2C
:104EE0008093FA039093FB03A093FC03B093FD031C
:104EF00081E00E946B778091F5059091F605A09175
:104F0000F705B091F8058093AF059093B005A09395
:104F1000B105B093B2058091F9059091FA05A09181
:104F2000FB05B091FC058093B3059093B405A09365
:104F3000B505B093B6058091FD059091FE05A09151
:104F4000FF05B09100068093B7059093B805A09334
:104F5000B905B093BA058091010690910206A0911F
:104F60000306B09104068093BB059093BC05A09303
:104F7000BD05B093BE05109221011092220110923E
:104F800023011092240188E50E947A1D882311F0E4
:104F900090E00AC089E50E947A1D8111F9CF8AE567
:104FA0000E947A1D91E098279093250191110C940D
:104FB0007B4388E50E947A1D81110C947B4380918C
:104FC000250181110C94814389E50E947A1D81118C
:104FD0000C94814388E50E947A1D8823D1F00E94B9
:104FE0006F1D672B682B692BA1F00E94661D209115
:104FF000E9053091EA054091EB055091EC050E94DE
:10500000FBC16093F5057093F6058093F7059093C7
:10501000F80589E50E947A1D8823D1F00E946F1D52
:10502000672B682B692BA1F00E94661D2091ED056E
:105030003091EE054091EF055091F0050E94FBC1C3
:105040006093F9057093FA058093FB059093FC0536
:1050500080912501882309F41CC12091DF03309140
:10506000E0034091E1035091E203609110017091DF
:10507000110180911201909113010E94FAC120E068
:1050800030E040E05FE30E94A9C520910401309127
:10509000050140910601509107010E94FAC16B0180
:1050A0007C0120E030E0A9010E94D7C420E030E07C
:1050B00040E05FE387FD05C0C701B6010E94FBC168
:1050C00004C0C701B6010E94FAC10E9443C30E94F6
:1050D00076C36093AF057093B0058093B10590934C
:1050E000B2052091E3033091E4034091E503509130
:1050F000E603609114017091150180911601909161
:1051000017010E94FAC120E030E040E05FE30E9416
:10511000A9C5209108013091090140910A015091DF
:105120000B010E94FAC16B017C0120E030E0A90173
:105130000E94D7C420E030E040E05FE387FD05C077
:10514000C701B6010E94FBC104C0C701B6010E949D
:10515000FAC10E9443C30E9476C36093B305709363
:10516000B4058093B5059093B605E2E4F9E0649147
:105170000CEF6002B0011124882777FD8095982FED
:105180000E9476C36093B7057093B8058093B90504
:105190009093BA0580E090E4ACE9B5E480932101F6
:1051A00090932201A0932301B09324011092FD0556
:1051B0001092FE051092FF05109200062091F9054D
:1051C0003091FA054091FB055091FC056091F50581
:1051D0007091F6058091F7059091F805F1E0CF2EDA
:1051E000F6E0DF2EE12CF12C87010E9453758090B0
:1051F000210190902201A0902301B0902401E09021
:10520000B705F090B8050091B9051091BA05209145
:10521000B3053091B4054091B5055091B605609144
:10522000AF057091B0058091B1059091B205E1ECA8
:10523000F5E0FF93EF93ABEBCA2EA5E0DA2E0E94C8
:10524000E66A0E94227E8091AF059091B005A09100
:10525000B105B091B2058093F5059093F605A09342
:10526000F705B093F8058091B3059091B405A0912E
:10527000B505B091B6058093F9059093FA05A09312
:10528000FB05B093FC0582E090E00E941A180F9095
:105290000F908AE50E947A1D882309F415C1809138
:1052A000DA05882309F4C6C08091DB05882309F458
:1052B000C1C08090F5059090F605A090F705B090DC
:1052C000F8052091040130910501409106015091AB
:1052D0000701C501B4010E94FBC16B017C01209153
:1052E000DD053091DE054091DF055091E0050E941B
:1052F000D7C487FDC7C02091270130912801409174
:10530000290150912A01C701B6010E94D4C2181682
:105310000CF4B8C04090F9055090FA056090FB0578
:105320007090FC05209108013091090140910A011B
:1053300050910B01C301B2010E94FBC16B017C01C2
:105340002091E1053091E2054091E3055091E4059B
:105350000E94D7C487FD96C020912B0130912C016B
:1053600040912D0150912E01C701B6010E94D4C277
:1053700018160CF487C01092FD051092FE051092CD
:10538000FF0510920006B1E0CB2EB6E0DB2EE12C3B
:10539000F12C8701A3019201C501B4010E9453754C
:1053A000E2E4F9E064911CEF6102B0011124882766
:1053B00077FD8095982F0E9476C37B018C016093C6
:1053C000B7057093B8058093B9059093BA0580909E
:1053D000E80F9090E90FA090EA0FB090EB0F809249
:1053E000210190922201A0922301B09224012091E8
:1053F000B3053091B4054091B5055091B605609163
:10540000AF057091B0058091B1059091B205E1ECC6
:10541000F5E0FF93EF93EBEBCE2EE5E0DE2E0E945E
:10542000E66A0E94227E82E090E00E941A180F90A5
:105430000F904AC086EB96E00E94529CEFE4F9E0A0
:1054400064918F01662349F089E492E10E94290E5C
:105450000F5F1F4FF8016491F5CFE4EAF6E0649125
:105460008F01662349F089E492E10E94290E0F5FC3
:105470001F4FF8016491F5CF6AE089E492E10E9440
:10548000290E22C081E996E00E94529CEFE4F9E0E7
:1054900064918F01662349F089E492E10E94290E0C
:1054A0000F5F1F4FF8016491F5CFEEE7F6E06491CE
:1054B0008F01662309F389E492E10E94290E0F5FB0
:1054C0001F4FF8016491F5CF8AE50E947A1D882369
:1054D000D1F00E946F1D672B682B692BA1F00E94F1
:1054E000661D2091F1053091F2054091F305509130
:1054F000F4050E94FBC16093FD057093FE05809347
:10550000FF05909300068091250181110C9487433B
:105510008AE50E947A1D81110C948743E090FD0575
:10552000F090FE050091FF05109100062091F9050D
:105530003091FA054091FB055091FC056091F5050D
:105540007091F6058091F7059091F805A1E0CA2EBB
:10555000A6E0DA2E0E94537580E00E946B7780915E
:105560009B0590919C05A0919D05B0919E0580930F
:10557000210190932201A0932301B09324018091F3
:1055800005069091060690933601809335010FB67B
:10559000F89480913E1290913F12A0914012B091E8
:1055A00041120FBE8093FA039093FB03A093FC0378
:1055B000B093FD030E9464770C9478430E94227E8E
:1055C00087E591E00E94D8B4CE0185599F4F0E9493
:1055D000DC74AF966CAD7DAD8EAD9FADAF97609333
:1055E000F5057093F6058093F7059093F805E3961B
:1055F0002CAD3DAD4EAD5FADE3972093F9053093F3
:10560000FA054093FB055093FC05E796ECACFDAC26
:105610000EAD1FADE797E092FD05F092FE050093F9
:10562000FF0510930006E1E0CE2EE6E0DE2E0E949C
:1056300053750E943E1680913F0190914001A091C8
:105640004101B09142018093210190932201A093E6
:105650002301B09324012091F9053091FA0540917E
:10566000FB055091FC056091F5057091F605809160
:10567000F7059091F805E12CF12C00E810E40E9468
:10568000A116C090FD05D090FE05E090FF05F090BA
:1056900000068090080190900901A0900A01B09046
:1056A0000B0120E030E040E251ECC501B4010E9462
:1056B000D7C42091E3033091E4034091E503509176
:1056C000E60387FD11C0609114017091150180916E
:1056D0001601909117010E94FAC120E030E040E2EB
:1056E00051E40E94FAC10EC060911401709115013D
:1056F00080911601909117010E94FAC1A5019401B1
:105700000E94FBC1A50194010E94FAC14B015C01FA
:10571000609004017090050100910601109107014D
:1057200020E030E040E251E4B301C8010E94D4C25D
:1057300018162CF0F0E0E0E0B0E2A1E404C0F62D91
:10574000E72DB02FA12F9301A8016F2F7E2F8B2F54
:105750009A2F0E94FAC187017601A50194010E9447
:10576000A1160E940B174090FD055090FE05609019
:10577000FF0570900006E6E7F6E064918F0166236E
:1057800049F089E492E10E94290E0F5F1F4FF80152
:105790006491F5CFE0900401F090050100910601BD
:1057A0001091070120E030E040E251E4B701C80168
:1057B0000E94D4C2181624F0E12CF12C00E211E46E
:1057C00022E030E0A701B80189E492E10E946E1A5C
:1057D000E1E7F6E064918F01662349F089E492E104
:1057E0000E94290E0F5F1F4FF8016491F5CFC09002
:1057F0000801D0900901E0900A01F0900B0120E02F
:1058000030E040E251ECC701B6010E94D7C42091BC
:10581000E3033091E4034091E5035091E60387FDF3
:1058200011C0609114017091150180911601909141
:1058300017010E94FAC120E030E040E251E40E94EA
:10584000FAC10EC06091140170911501809116018A
:10585000909117010E94FAC1A70196010E94FBC115
:1058600022E030E0AB01BC0189E492E10E946E1AB3
:10587000ECE6F6E064918F01662349F089E492E159
:105880000E94290E0F5F1F4FF8016491F5CF4091E0
:10589000FD055091FE056091FF057091000622E024
:1058A00030E089E492E10E946E1AEAE6F6E0649143
:1058B0008F01662349F089E492E10E94290E0F5F6F
:1058C0001F4FF8016491F5CF20E030E040EA50E44A
:1058D0006091FD057091FE058091FF059091000695
:1058E0000E94FBC17B018C012091F9053091FA05E2
:1058F0004091FB055091FC056091F5057091F6050E
:105900008091F7059091F8050E94A116C090FD05C1
:10591000D090FE05E090FF05F0900006A0900801F1
:10592000B090090100910A0110910B0120E030E0D4
:1059300040E251E4B501C8010E94D4C218162CF00F
:10594000B0E0A0E0F0E2E1E404C0BA2DAB2DF02F0E
:10595000E12F9501A8016B2F7A2F8F2F9E2F0E9488
:10596000FAC14B015C0120900401309005010091C7
:1059700006011091070120E030E040E251E4B1015E
:10598000C8010E94D4C218162CF0B0E0A0E0F0E2EA
:10599000E1E404C0B22DA32DF02FE12F9101A80165
:1059A0006B2F7A2F8F2F9E2F0E94FAC187017601CD
:1059B000A50194010E94A1160E940B170091FD05FC
:1059C0001091FE052091FF0530910006C556DF4F6E
:1059D000088319832A833B83CB59D040E2E6F6E063
:1059E00064918F01662349F089E492E10E94290EB7
:1059F0000F5F1F4FF8016491F5CFE0900401F09024
:105A00000501009106011091070120E030E040E21D
:105A100051E4B701C8010E94D4C2181624F0E12C49
:105A2000F12C00E211E422E030E0A701B80189E4A2
:105A300092E10E946E1AEDE5F6E064918F01662313
:105A400049F089E492E10E94290E0F5F1F4FF8018F
:105A50006491F5CFE0900801F090090100910A01EE
:105A600010910B0120E030E040E251E4B701C801A1
:105A70000E94D4C2181624F0E12CF12C00E211E4AB
:105A800022E030E0A701B80189E492E10E946E1A99
:105A9000E8E5F6E064918F01662349F089E492E13C
:105AA0000E94290E0F5F1F4FF8016491F5CF4091BE
:105AB000FD055091FE056091FF057091000622E002
:105AC00030E089E492E10E946E1AE6E5F6E0649126
:105AD0008F01662349F089E492E10E94290E0F5F4D
